{
  "address": "0x5FbDB2315678afecb367f032d93F642f64180aa3",
  "abi": [
    {
      "inputs": [
        {
          "internalType": "string[]",
          "name": "_candiates",
          "type": "string[]"
        },
        {
          "internalType": "uint256",
          "name": "_votingPeriodTime",
          "type": "uint256"
        }
      ],
      "stateMutability": "payable",
      "type": "constructor"
    },
    {
      "inputs": [],
      "name": "Voting_VoterAlreadyDoneVoting",
      "type": "error"
    },
    {
      "inputs": [],
      "name": "Voting_WaitForAtLeastOneVote",
      "type": "error"
    },
    {
      "anonymous": false,
      "inputs": [
        {
          "indexed": false,
          "internalType": "string[]",
          "name": "",
          "type": "string[]"
        },
        {
          "indexed": false,
          "internalType": "uint256[]",
          "name": "",
          "type": "uint256[]"
        }
      ],
      "name": "publishVoitingResult",
      "type": "event"
    },
    {
      "inputs": [
        {
          "internalType": "bytes",
          "name": "",
          "type": "bytes"
        }
      ],
      "name": "checkUpkeep",
      "outputs": [
        {
          "internalType": "bool",
          "name": "upkeepNeeded",
          "type": "bool"
        },
        {
          "internalType": "bytes",
          "name": "",
          "type": "bytes"
        }
      ],
      "stateMutability": "view",
      "type": "function"
    },
    {
      "inputs": [],
      "name": "getCandidateList",
      "outputs": [
        {
          "internalType": "string[]",
          "name": "",
          "type": "string[]"
        }
      ],
      "stateMutability": "view",
      "type": "function"
    },
    {
      "inputs": [
        {
          "internalType": "string",
          "name": "name",
          "type": "string"
        }
      ],
      "name": "getCandidateVote",
      "outputs": [
        {
          "internalType": "uint256",
          "name": "",
          "type": "uint256"
        }
      ],
      "stateMutability": "view",
      "type": "function"
    },
    {
      "inputs": [],
      "name": "getVotingPeriodTime",
      "outputs": [
        {
          "internalType": "uint256",
          "name": "",
          "type": "uint256"
        }
      ],
      "stateMutability": "view",
      "type": "function"
    },
    {
      "inputs": [],
      "name": "i_votingPeriodTime",
      "outputs": [
        {
          "internalType": "uint256",
          "name": "",
          "type": "uint256"
        }
      ],
      "stateMutability": "view",
      "type": "function"
    },
    {
      "inputs": [],
      "name": "isVotingCompleted",
      "outputs": [
        {
          "internalType": "bool",
          "name": "",
          "type": "bool"
        }
      ],
      "stateMutability": "view",
      "type": "function"
    },
    {
      "inputs": [
        {
          "internalType": "bytes",
          "name": "",
          "type": "bytes"
        }
      ],
      "name": "performUpkeep",
      "outputs": [],
      "stateMutability": "nonpayable",
      "type": "function"
    },
    {
      "inputs": [],
      "name": "s_lastTimeStamp",
      "outputs": [
        {
          "internalType": "uint256",
          "name": "",
          "type": "uint256"
        }
      ],
      "stateMutability": "view",
      "type": "function"
    },
    {
      "inputs": [
        {
          "internalType": "string",
          "name": "candiate",
          "type": "string"
        }
      ],
      "name": "voteToCandidate",
      "outputs": [],
      "stateMutability": "nonpayable",
      "type": "function"
    }
  ],
  "transactionHash": "0x9c3ada46112ee7e7bd38e9f802334888174d75126a26ba77b3d73fcbe82a89a9",
  "args": [
    [
      "Yashwant",
      "Sakshi"
    ],
    "100"
  ],
  "numDeployments": 1,
  "solcInputHash": "014fb974bd5f58471b74eb38251ecacf",
  "bytecode": "0x60a06040526000600260006101000a81548160ff02191690831515021790555060405162001e5938038062001e598339818101604052810190620000449190620004c1565b60005b8251811015620000fd576000808483815181106200006a576200006962000527565b5b6020026020010151604051620000819190620005a3565b9081526020016040518091039020819055506004838281518110620000ab57620000aa62000527565b5b6020026020010151908060018154018082558091505060019003906000526020600020016000909190919091509081620000e69190620007f2565b508080620000f49062000908565b91505062000047565b5080608081815250504260038190555062000123476200012b60201b6200079d1760201c565b505062000983565b620001cb8160405160240162000142919062000966565b6040516020818303038152906040527ff82c50f1000000000000000000000000000000000000000000000000000000007bffffffffffffffffffffffffffffffffffffffffffffffffffffffff19166020820180517bffffffffffffffffffffffffffffffffffffffffffffffffffffffff8381831617835250505050620001ce60201b60201c565b50565b60008151905060006a636f6e736f6c652e6c6f679050602083016000808483855afa5050505050565b6000604051905090565b600080fd5b600080fd5b600080fd5b6000601f19601f8301169050919050565b7f4e487b7100000000000000000000000000000000000000000000000000000000600052604160045260246000fd5b6200025b8262000210565b810181811067ffffffffffffffff821117156200027d576200027c62000221565b5b80604052505050565b600062000292620001f7565b9050620002a0828262000250565b919050565b600067ffffffffffffffff821115620002c357620002c262000221565b5b602082029050602081019050919050565b600080fd5b600080fd5b600067ffffffffffffffff821115620002fc57620002fb62000221565b5b620003078262000210565b9050602081019050919050565b60005b838110156200033457808201518184015260208101905062000317565b60008484015250505050565b6000620003576200035184620002de565b62000286565b905082815260208101848484011115620003765762000375620002d9565b5b6200038384828562000314565b509392505050565b600082601f830112620003a357620003a26200020b565b5b8151620003b584826020860162000340565b91505092915050565b6000620003d5620003cf84620002a5565b62000286565b90508083825260208201905060208402830185811115620003fb57620003fa620002d4565b5b835b818110156200044957805167ffffffffffffffff8111156200042457620004236200020b565b5b8086016200043389826200038b565b85526020850194505050602081019050620003fd565b5050509392505050565b600082601f8301126200046b576200046a6200020b565b5b81516200047d848260208601620003be565b91505092915050565b6000819050919050565b6200049b8162000486565b8114620004a757600080fd5b50565b600081519050620004bb8162000490565b92915050565b60008060408385031215620004db57620004da62000201565b5b600083015167ffffffffffffffff811115620004fc57620004fb62000206565b5b6200050a8582860162000453565b92505060206200051d85828601620004aa565b9150509250929050565b7f4e487b7100000000000000000000000000000000000000000000000000000000600052603260045260246000fd5b600081519050919050565b600081905092915050565b6000620005798262000556565b62000585818562000561565b93506200059781856020860162000314565b80840191505092915050565b6000620005b182846200056c565b915081905092915050565b7f4e487b7100000000000000000000000000000000000000000000000000000000600052602260045260246000fd5b600060028204905060018216806200060457607f821691505b6020821081036200061a5762000619620005bc565b5b50919050565b60008190508160005260206000209050919050565b60006020601f8301049050919050565b600082821b905092915050565b600060088302620006847fffffffffffffffffffffffffffffffffffffffffffffffffffffffffffffffff8262000645565b62000690868362000645565b95508019841693508086168417925050509392505050565b6000819050919050565b6000620006d3620006cd620006c78462000486565b620006a8565b62000486565b9050919050565b6000819050919050565b620006ef83620006b2565b62000707620006fe82620006da565b84845462000652565b825550505050565b600090565b6200071e6200070f565b6200072b818484620006e4565b505050565b5b8181101562000753576200074760008262000714565b60018101905062000731565b5050565b601f821115620007a2576200076c8162000620565b620007778462000635565b8101602085101562000787578190505b6200079f620007968562000635565b83018262000730565b50505b505050565b600082821c905092915050565b6000620007c760001984600802620007a7565b1980831691505092915050565b6000620007e28383620007b4565b9150826002028217905092915050565b620007fd8262000556565b67ffffffffffffffff81111562000819576200081862000221565b5b620008258254620005eb565b6200083282828562000757565b600060209050601f8311600181146200086a576000841562000855578287015190505b620008618582620007d4565b865550620008d1565b601f1984166200087a8662000620565b60005b82811015620008a4578489015182556001820191506020850194506020810190506200087d565b86831015620008c45784890151620008c0601f891682620007b4565b8355505b6001600288020188555050505b505050505050565b7f4e487b7100000000000000000000000000000000000000000000000000000000600052601160045260246000fd5b6000620009158262000486565b91507fffffffffffffffffffffffffffffffffffffffffffffffffffffffffffffffff82036200094a5762000949620008d9565b5b600182019050919050565b620009608162000486565b82525050565b60006020820190506200097d600083018462000955565b92915050565b6080516114a5620009b4600039600081816101de0152818161020a0152818161030d015261052301526114a56000f3fe608060405234801561001057600080fd5b50600436106100935760003560e01c80634585e33b116100665780634585e33b14610110578063583423801461012c5780636e04ff0d1461015c578063b75415ce1461018d578063fdbc4006146101a957610093565b80631bbcf858146100985780632927eec0146100b657806334854043146100d45780634305218a146100f2575b600080fd5b6100a06101c7565b6040516100ad9190610913565b60405180910390f35b6100be6101da565b6040516100cb9190610947565b60405180910390f35b6100dc610202565b6040516100e99190610947565b60405180910390f35b6100fa610208565b6040516101079190610947565b60405180910390f35b61012a600480360381019061012591906109db565b61022c565b005b61014660048036038101906101419190610a7e565b6104f3565b6040516101539190610947565b60405180910390f35b61017660048036038101906101719190610c0c565b61051d565b604051610184929190610cd4565b60405180910390f35b6101a760048036038101906101a29190610da5565b610593565b005b6101b16106c4565b6040516101be9190610f05565b60405180910390f35b600260009054906101000a900460ff1681565b60007f0000000000000000000000000000000000000000000000000000000000000000905090565b60035481565b7f000000000000000000000000000000000000000000000000000000000000000081565b60006102466040518060200160405280600081525061051d565b5090506000805b6004805490508110156102b9576000806004838154811061027157610270610f27565b5b906000526020600020016040516102889190611059565b90815260200160405180910390205411156102a657600191506102b9565b80806102b19061109f565b91505061024d565b50801580156102d45750600260009054906101000a900460ff165b1561030b576040517f2d4228e900000000000000000000000000000000000000000000000000000000815260040160405180910390fd5b7f00000000000000000000000000000000000000000000000000000000000000006003544261033a91906110e7565b111561036357426003819055506001600260006101000a81548160ff0219169083151502179055505b600060048054905067ffffffffffffffff81111561038457610383610ae1565b5b6040519080825280602002602001820160405280156103b25781602001602082028036833780820191505090505b50905060005b60048054905081101561047357600080600483815481106103dc576103db610f27565b5b906000526020600020016040516103f39190611059565b90815260200160405180910390208190555060006004828154811061041b5761041a610f27565b5b906000526020600020016040516104329190611059565b90815260200160405180910390205482828151811061045457610453610f27565b5b602002602001018181525050808061046b9061109f565b9150506103b8565b506104b26040518060400160405280600c81526020017f6576656e7420656d697465640000000000000000000000000000000000000000815250610836565b7f86191ff009a973e2bd1728e188ef917e70aea4410350b0e3e19424a182995c5d6004826040516104e4929190611312565b60405180910390a15050505050565b600080838360405161050692919061136e565b908152602001604051809103902054905092915050565b600060607f00000000000000000000000000000000000000000000000000000000000000006003544261055091906110e7565b119150816040518060400160405280600381526020017f307830000000000000000000000000000000000000000000000000000000000081525091509150915091565b60011515600160003373ffffffffffffffffffffffffffffffffffffffff1673ffffffffffffffffffffffffffffffffffffffff16815260200190815260200160002060009054906101000a900460ff1615150361061d576040517f1f0d9a3800000000000000000000000000000000000000000000000000000000815260040160405180910390fd5b60018060003373ffffffffffffffffffffffffffffffffffffffff1673ffffffffffffffffffffffffffffffffffffffff16815260200190815260200160002060006101000a81548160ff021916908315150217905550600160008260405161068691906113b8565b90815260200160405180910390205461069f91906113cf565b6000826040516106af91906113b8565b90815260200160405180910390208190555050565b60606004805480602002602001604051908101604052809291908181526020016000905b8282101561079457838290600052602060002001805461070790610f85565b80601f016020809104026020016040519081016040528092919081815260200182805461073390610f85565b80156107805780601f1061075557610100808354040283529160200191610780565b820191906000526020600020905b81548152906001019060200180831161076357829003601f168201915b5050505050815260200190600101906106e8565b50505050905090565b610833816040516024016107b19190610947565b6040516020818303038152906040527ff82c50f1000000000000000000000000000000000000000000000000000000007bffffffffffffffffffffffffffffffffffffffffffffffffffffffff19166020820180517bffffffffffffffffffffffffffffffffffffffffffffffffffffffff83818316178352505050506108cf565b50565b6108cc8160405160240161084a919061144d565b6040516020818303038152906040527f41304fac000000000000000000000000000000000000000000000000000000007bffffffffffffffffffffffffffffffffffffffffffffffffffffffff19166020820180517bffffffffffffffffffffffffffffffffffffffffffffffffffffffff83818316178352505050506108cf565b50565b60008151905060006a636f6e736f6c652e6c6f679050602083016000808483855afa5050505050565b60008115159050919050565b61090d816108f8565b82525050565b60006020820190506109286000830184610904565b92915050565b6000819050919050565b6109418161092e565b82525050565b600060208201905061095c6000830184610938565b92915050565b6000604051905090565b600080fd5b600080fd5b600080fd5b600080fd5b600080fd5b60008083601f84011261099b5761099a610976565b5b8235905067ffffffffffffffff8111156109b8576109b761097b565b5b6020830191508360018202830111156109d4576109d3610980565b5b9250929050565b600080602083850312156109f2576109f161096c565b5b600083013567ffffffffffffffff811115610a1057610a0f610971565b5b610a1c85828601610985565b92509250509250929050565b60008083601f840112610a3e57610a3d610976565b5b8235905067ffffffffffffffff811115610a5b57610a5a61097b565b5b602083019150836001820283011115610a7757610a76610980565b5b9250929050565b60008060208385031215610a9557610a9461096c565b5b600083013567ffffffffffffffff811115610ab357610ab2610971565b5b610abf85828601610a28565b92509250509250929050565b600080fd5b6000601f19601f8301169050919050565b7f4e487b7100000000000000000000000000000000000000000000000000000000600052604160045260246000fd5b610b1982610ad0565b810181811067ffffffffffffffff82111715610b3857610b37610ae1565b5b80604052505050565b6000610b4b610962565b9050610b578282610b10565b919050565b600067ffffffffffffffff821115610b7757610b76610ae1565b5b610b8082610ad0565b9050602081019050919050565b82818337600083830152505050565b6000610baf610baa84610b5c565b610b41565b905082815260208101848484011115610bcb57610bca610acb565b5b610bd6848285610b8d565b509392505050565b600082601f830112610bf357610bf2610976565b5b8135610c03848260208601610b9c565b91505092915050565b600060208284031215610c2257610c2161096c565b5b600082013567ffffffffffffffff811115610c4057610c3f610971565b5b610c4c84828501610bde565b91505092915050565b600081519050919050565b600082825260208201905092915050565b60005b83811015610c8f578082015181840152602081019050610c74565b60008484015250505050565b6000610ca682610c55565b610cb08185610c60565b9350610cc0818560208601610c71565b610cc981610ad0565b840191505092915050565b6000604082019050610ce96000830185610904565b8181036020830152610cfb8184610c9b565b90509392505050565b600067ffffffffffffffff821115610d1f57610d1e610ae1565b5b610d2882610ad0565b9050602081019050919050565b6000610d48610d4384610d04565b610b41565b905082815260208101848484011115610d6457610d63610acb565b5b610d6f848285610b8d565b509392505050565b600082601f830112610d8c57610d8b610976565b5b8135610d9c848260208601610d35565b91505092915050565b600060208284031215610dbb57610dba61096c565b5b600082013567ffffffffffffffff811115610dd957610dd8610971565b5b610de584828501610d77565b91505092915050565b600081519050919050565b600082825260208201905092915050565b6000819050602082019050919050565b600081519050919050565b600082825260208201905092915050565b6000610e4182610e1a565b610e4b8185610e25565b9350610e5b818560208601610c71565b610e6481610ad0565b840191505092915050565b6000610e7b8383610e36565b905092915050565b6000602082019050919050565b6000610e9b82610dee565b610ea58185610df9565b935083602082028501610eb785610e0a565b8060005b85811015610ef35784840389528151610ed48582610e6f565b9450610edf83610e83565b925060208a01995050600181019050610ebb565b50829750879550505050505092915050565b60006020820190508181036000830152610f1f8184610e90565b905092915050565b7f4e487b7100000000000000000000000000000000000000000000000000000000600052603260045260246000fd5b7f4e487b7100000000000000000000000000000000000000000000000000000000600052602260045260246000fd5b60006002820490506001821680610f9d57607f821691505b602082108103610fb057610faf610f56565b5b50919050565b600081905092915050565b60008190508160005260206000209050919050565b60008154610fe381610f85565b610fed8186610fb6565b94506001821660008114611008576001811461101d57611050565b60ff1983168652811515820286019350611050565b61102685610fc1565b60005b8381101561104857815481890152600182019150602081019050611029565b838801955050505b50505092915050565b60006110658284610fd6565b915081905092915050565b7f4e487b7100000000000000000000000000000000000000000000000000000000600052601160045260246000fd5b60006110aa8261092e565b91507fffffffffffffffffffffffffffffffffffffffffffffffffffffffffffffffff82036110dc576110db611070565b5b600182019050919050565b60006110f28261092e565b91506110fd8361092e565b925082820390508181111561111557611114611070565b5b92915050565b600081549050919050565b60008190508160005260206000209050919050565b6000815461114881610f85565b6111528186610e25565b9450600182166000811461116d5760018114611183576111b6565b60ff1983168652811515602002860193506111b6565b61118c85610fc1565b60005b838110156111ae5781548189015260018201915060208101905061118f565b808801955050505b50505092915050565b60006111cb838361113b565b905092915050565b6000600182019050919050565b60006111eb8261111b565b6111f58185610df9565b93508360208202850161120785611126565b8060005b858110156112425784840389528161122385826111bf565b945061122e836111d3565b925060208a0199505060018101905061120b565b50829750879550505050505092915050565b600081519050919050565b600082825260208201905092915050565b6000819050602082019050919050565b6112898161092e565b82525050565b600061129b8383611280565b60208301905092915050565b6000602082019050919050565b60006112bf82611254565b6112c9818561125f565b93506112d483611270565b8060005b838110156113055781516112ec888261128f565b97506112f7836112a7565b9250506001810190506112d8565b5085935050505092915050565b6000604082019050818103600083015261132c81856111e0565b9050818103602083015261134081846112b4565b90509392505050565b60006113558385610fb6565b9350611362838584610b8d565b82840190509392505050565b600061137b828486611349565b91508190509392505050565b600061139282610e1a565b61139c8185610fb6565b93506113ac818560208601610c71565b80840191505092915050565b60006113c48284611387565b915081905092915050565b60006113da8261092e565b91506113e58361092e565b92508282019050808211156113fd576113fc611070565b5b92915050565b600082825260208201905092915050565b600061141f82610e1a565b6114298185611403565b9350611439818560208601610c71565b61144281610ad0565b840191505092915050565b600060208201905081810360008301526114678184611414565b90509291505056fea2646970667358221220a6152fae766cf9aa0000ddb0b25ad4dbd2c029c6ddd5e7359e36caf7a1454e4364736f6c63430008110033",
  "devdoc": {
    "kind": "dev",
    "methods": {},
    "version": 1
  },
  "userdoc": {
    "kind": "user",
    "methods": {},
    "version": 1
  },
  "storageLayout": {
    "storage": [
      {
        "astId": 73,
        "contract": "contracts/Voting.sol:Voting",
        "label": "s_candidateMap",
        "offset": 0,
        "slot": "0",
        "type": "t_mapping(t_string_memory_ptr,t_uint256)"
      },
      {
        "astId": 77,
        "contract": "contracts/Voting.sol:Voting",
        "label": "s_voterList",
        "offset": 0,
        "slot": "1",
        "type": "t_mapping(t_address,t_bool)"
      },
      {
        "astId": 80,
        "contract": "contracts/Voting.sol:Voting",
        "label": "isVotingCompleted",
        "offset": 0,
        "slot": "2",
        "type": "t_bool"
      },
      {
        "astId": 84,
        "contract": "contracts/Voting.sol:Voting",
        "label": "s_lastTimeStamp",
        "offset": 0,
        "slot": "3",
        "type": "t_uint256"
      },
      {
        "astId": 87,
        "contract": "contracts/Voting.sol:Voting",
        "label": "s_candidateList",
        "offset": 0,
        "slot": "4",
        "type": "t_array(t_string_storage)dyn_storage"
      }
    ],
    "types": {
      "t_address": {
        "encoding": "inplace",
        "label": "address",
        "numberOfBytes": "20"
      },
      "t_array(t_string_storage)dyn_storage": {
        "base": "t_string_storage",
        "encoding": "dynamic_array",
        "label": "string[]",
        "numberOfBytes": "32"
      },
      "t_bool": {
        "encoding": "inplace",
        "label": "bool",
        "numberOfBytes": "1"
      },
      "t_mapping(t_address,t_bool)": {
        "encoding": "mapping",
        "key": "t_address",
        "label": "mapping(address => bool)",
        "numberOfBytes": "32",
        "value": "t_bool"
      },
      "t_mapping(t_string_memory_ptr,t_uint256)": {
        "encoding": "mapping",
        "key": "t_string_memory_ptr",
        "label": "mapping(string => uint256)",
        "numberOfBytes": "32",
        "value": "t_uint256"
      },
      "t_string_memory_ptr": {
        "encoding": "bytes",
        "label": "string",
        "numberOfBytes": "32"
      },
      "t_string_storage": {
        "encoding": "bytes",
        "label": "string",
        "numberOfBytes": "32"
      },
      "t_uint256": {
        "encoding": "inplace",
        "label": "uint256",
        "numberOfBytes": "32"
      }
    }
  }
}