{
  "address": "0x5FbDB2315678afecb367f032d93F642f64180aa3",
  "abi": [
    {
      "inputs": [
        {
          "internalType": "string",
          "name": "candiate1",
          "type": "string"
        },
        {
          "internalType": "string",
          "name": "candiate2",
          "type": "string"
        }
      ],
      "stateMutability": "payable",
      "type": "constructor"
    },
    {
      "inputs": [],
      "name": "getListOfCandidate",
      "outputs": [
        {
          "internalType": "uint256",
          "name": "",
          "type": "uint256"
        }
      ],
      "stateMutability": "view",
      "type": "function"
    }
  ],
  "transactionHash": "0x9d78937376add55caa32d67815591a4aae56c612df4d04b811d9d3bcd5bdde7f",
  "args": [
    "Yashwant",
    "Sakshi"
  ],
  "numDeployments": 1,
  "solcInputHash": "87403c886a75df81f1f519a2d4f2f076",
  "bytecode": "0x6080604052604051610800380380610800833981810160405281019061002591906103a9565b600080836040516100369190610468565b908152602001604051809103902081905550600080826040516100599190610468565b9081526020016040518091039020819055506100b36040518060400160405280601581526020017f616464726573732874686973292e62616c616e636500000000000000000000008152506100cd60201b61005b1760201c565b6100c64761016c60201b6100f41760201c565b505061051f565b610169816040516024016100e191906104c9565b6040516020818303038152906040527f41304fac000000000000000000000000000000000000000000000000000000007bffffffffffffffffffffffffffffffffffffffffffffffffffffffff19166020820180517bffffffffffffffffffffffffffffffffffffffffffffffffffffffff838183161783525050505061020b60201b60201c565b50565b610208816040516024016101809190610504565b6040516020818303038152906040527ff82c50f1000000000000000000000000000000000000000000000000000000007bffffffffffffffffffffffffffffffffffffffffffffffffffffffff19166020820180517bffffffffffffffffffffffffffffffffffffffffffffffffffffffff838183161783525050505061020b60201b60201c565b50565b60008151905060006a636f6e736f6c652e6c6f679050602083016000808483855afa5050505050565b6000604051905090565b600080fd5b600080fd5b600080fd5b600080fd5b6000601f19601f8301169050919050565b7f4e487b7100000000000000000000000000000000000000000000000000000000600052604160045260246000fd5b61029b82610252565b810181811067ffffffffffffffff821117156102ba576102b9610263565b5b80604052505050565b60006102cd610234565b90506102d98282610292565b919050565b600067ffffffffffffffff8211156102f9576102f8610263565b5b61030282610252565b9050602081019050919050565b60005b8381101561032d578082015181840152602081019050610312565b60008484015250505050565b600061034c610347846102de565b6102c3565b9050828152602081018484840111156103685761036761024d565b5b61037384828561030f565b509392505050565b600082601f8301126103905761038f610248565b5b81516103a0848260208601610339565b91505092915050565b600080604083850312156103c0576103bf61023e565b5b600083015167ffffffffffffffff8111156103de576103dd610243565b5b6103ea8582860161037b565b925050602083015167ffffffffffffffff81111561040b5761040a610243565b5b6104178582860161037b565b9150509250929050565b600081519050919050565b600081905092915050565b600061044282610421565b61044c818561042c565b935061045c81856020860161030f565b80840191505092915050565b60006104748284610437565b915081905092915050565b600082825260208201905092915050565b600061049b82610421565b6104a5818561047f565b93506104b581856020860161030f565b6104be81610252565b840191505092915050565b600060208201905081810360008301526104e38184610490565b905092915050565b6000819050919050565b6104fe816104eb565b82525050565b600060208201905061051960008301846104f5565b92915050565b6102d28061052e6000396000f3fe608060405234801561001057600080fd5b506004361061002b5760003560e01c8063765a15d814610030575b600080fd5b61003861004e565b60405161004591906101cf565b60405180910390f35b6000600180549050905090565b6100f18160405160240161006f919061027a565b6040516020818303038152906040527f41304fac000000000000000000000000000000000000000000000000000000007bffffffffffffffffffffffffffffffffffffffffffffffffffffffff19166020820180517bffffffffffffffffffffffffffffffffffffffffffffffffffffffff838183161783525050505061018d565b50565b61018a8160405160240161010891906101cf565b6040516020818303038152906040527ff82c50f1000000000000000000000000000000000000000000000000000000007bffffffffffffffffffffffffffffffffffffffffffffffffffffffff19166020820180517bffffffffffffffffffffffffffffffffffffffffffffffffffffffff838183161783525050505061018d565b50565b60008151905060006a636f6e736f6c652e6c6f679050602083016000808483855afa5050505050565b6000819050919050565b6101c9816101b6565b82525050565b60006020820190506101e460008301846101c0565b92915050565b600081519050919050565b600082825260208201905092915050565b60005b83811015610224578082015181840152602081019050610209565b60008484015250505050565b6000601f19601f8301169050919050565b600061024c826101ea565b61025681856101f5565b9350610266818560208601610206565b61026f81610230565b840191505092915050565b600060208201905081810360008301526102948184610241565b90509291505056fea264697066735822122078aea30ce5f54ef1161cd7a9a493c72e138711d01275e82d3fce772fe0dc10b864736f6c63430008110033",
  "devdoc": {
    "kind": "dev",
    "methods": {},
    "version": 1
  },
  "userdoc": {
    "kind": "user",
    "methods": {},
    "version": 1
  },
  "storageLayout": {
    "storage": [
      {
        "astId": 6,
        "contract": "contracts/Voting.sol:Voting",
        "label": "s_candidatemap",
        "offset": 0,
        "slot": "0",
        "type": "t_mapping(t_string_memory_ptr,t_uint256)"
      },
      {
        "astId": 9,
        "contract": "contracts/Voting.sol:Voting",
        "label": "numberOFVoter",
        "offset": 0,
        "slot": "1",
        "type": "t_array(t_address)dyn_storage"
      }
    ],
    "types": {
      "t_address": {
        "encoding": "inplace",
        "label": "address",
        "numberOfBytes": "20"
      },
      "t_array(t_address)dyn_storage": {
        "base": "t_address",
        "encoding": "dynamic_array",
        "label": "address[]",
        "numberOfBytes": "32"
      },
      "t_mapping(t_string_memory_ptr,t_uint256)": {
        "encoding": "mapping",
        "key": "t_string_memory_ptr",
        "label": "mapping(string => uint256)",
        "numberOfBytes": "32",
        "value": "t_uint256"
      },
      "t_string_memory_ptr": {
        "encoding": "bytes",
        "label": "string",
        "numberOfBytes": "32"
      },
      "t_uint256": {
        "encoding": "inplace",
        "label": "uint256",
        "numberOfBytes": "32"
      }
    }
  }
}